:100000006F00C0006F0000006F0040039702000007
:10001000938202037390523073500030735030302B
:10002000735020307350403097710000938101B6B7
:10003000178110201301015C6F00C067130101F8E4
:1000400023221100232421002326310023284100EC
:10005000232A5100232C6100232E710023208102CA
:10006000232291022324A1022326B1022328C102C4
:10007000232AD102232CE102232EF10223200105A1
:100080002322110523242105232631052328410598
:10009000232A5105232C6105232E71052320810776
:1000A000232291072324A1072326B1072328C10770
:1000B000232AD107232CE107232EF10773252034AF
:1000C000F325103413060100EF0040587310153467
:1000D000B72200009382028073A002308320410087
:1000E000032181008321C1000322010183224101F8
:1000F000032381018323C1010324010283244102DC
:10010000032581028325C1020326010383264103BF
:10011000032781038327C1030328010483284104A3
:10012000032981048329C104032A0105832A410587
:10013000032B8105832BC105032C0106832C41066B
:10014000032D8106832DC106032E0107832E41074F
:10015000032F8107832FC10713010108730020308B
:100160002320B5006780000003250500678000009C
:1001700083270500B396B600B3C6D700B3F6C60012
:10018000B3C6F6002320D5006780000003250500D4
:100190003375C5003355B5006780000093950501A0
:1001A00093D505012310B5006780000003550500B5
:1001B00013150501135505016780000083570500DD
:1001C0009397070193D70701B396B600131606015C
:1001D00013560601B3F6C6001346F6FFB3F7C70081
:1001E000B3E6F6002310D500678000000355050034
:1001F00013150501135505013375C5003355B500B9
:1002000013150501135505016780000093F5F50FDF
:100210002300B50067800000034505001375F50F46
:10022000678000008347050093F7F70FB396B60089
:100230001376F60FB3F6C6001346F6FFB3F7C70002
:10024000B3E6F6002300D5006780000003450500F3
:100250001375F50F3375C5003355B5001375F50FDC
:1002600067800000B707108023A6A7041305F0FFDE
:100270006780000083A701803385A700378710803F
:100280001307075F636EE500378710801307075F6A
:10029000636CA70023A0A18013850700678000007E
:1002A0001305F0FF678000001305F0FF6780000072
:1002B000130101FF2326110013052000EFF09FFA20
:1002C0008320C1001301010167800000130101FFB9
:1002D0002326110013052000EFF0DFF88320C10072
:1002E0001301010167800000130101FF23261100A3
:1002F00013059000EFF01FF78320C10013010101E7
:1003000067800000130101FF232611001305C000C0
:10031000EFF05FF58320C100130101016780000049
:10032000130101FF232611001305B000EFF09FF326
:100330008320C10013010101678000001305100034
:10034000678000001305F5FF9307100063FCA7000A
:1003500013079000B707108023A6E70413050000D9
:10036000678000001305100067800000130101FF83
:10037000232611002324810013840500EFF09FFC45
:1003800063000502B72700002328F40013050000CE
:100390008320C10003248100130101016780000054
:1003A00013059000EFF01FEC6FF09FFE130101FFAB
:1003B0002326110013056001EFF0DFEA8320C1005E
:1003C0001301010167800000130101FF23261100C2
:1003D0001305F001EFF01FE98320C10013010101B3
:1003E00067800000130101FF23261100EFF09FF545
:1003F000630A0500130500008320C10013010101F9
:100400006780000013059000EFF0DFE56FF0DFFE7E
:10041000130101FF232611002324810023229100D0
:100420001384050093040600EFF0DFF1631005026A
:1004300013059000EFF01FE38320C1000324810027
:10044000832441001301010167800000138604002A
:10045000930504003705108013050505EF00D0371C
:100460006FF09FFD130101FF232611001305D0003B
:10047000EFF05FDF8320C1001301010167800000FE
:10048000130101FF232611001305D000EFF09FDDBB
:100490008320C1001301010167800000130101FFE7
:1004A0002326110013052000EFF0DFDB8320C100BD
:1004B0001301010167800000130101FF23261100D1
:1004C0001305A000EFF01FDA8320C1001301010122
:1004D00067800000130101FE232E1100232C8100F0
:1004E000232A910023282101232631019389050025
:1004F00013090600EFF01FE5630A050693040000E8
:100500006F0080009384140063F224053384990003
:100510001306100093050400370510801305050528
:10052000EF001018034704009307A000E31CF7FC3A
:1005300013061000B755006093854570370510808D
:1005400013050505EF00D0156FF0DFFB130509005B
:100550008320C10103248101832441010329010176
:100560008329C10013010102678000001305900078
:10057000EFF05FCF6FF0DFFD130101FE232E1100BE
:10058000232C8100232A910023282101130905002F
:100590009384050013062000B7550060938585708D
:1005A000EFF05FF3130480006F000002938777037E
:1005B00093F7F70FA307F100130610009305F1005E
:1005C00013050900EFF01FF1630C04021304F4FF9C
:1005D0001374F40F131724009307F000B397E70088
:1005E000B3F79700B3D7E70093F7F70F130790001F
:1005F000E36EF7FA9387070393F7F70F6FF09FFB0C
:100600008320C101032481018324410103290101C5
:100610001301010267800000130101FF232611006E
:1006200023248100130405001306D001B755006090
:100630009385C57013052000EFF0DFE993050400F2
:1006400013052000EFF05FF36F000000130101FFBE
:100650002326110023248100232291001304050086
:10066000635C050293840500B707008093C7F7FF1A
:10067000B377F5001307B0006390E702EF30906E98
:10068000138504008320C1000324810083244100DA
:10069000130101016780000013065000B755006088
:1006A0009385C57213051000EFF0DFE21305140007
:1006B000EFF09FF6130101FE232E110093061000A8
:1006C0001306C002B7150070370510801305050525
:1006D000EF008071B7570060938747732322F100C2
:1006E0002324010023260100930541001305100077
:1006F000EF305030EF30D06C130101FF2326110092
:1007000023248100232291002320210113090500C5
:10071000938405002320B5002322C50013040000A4
:100720006F00C0019305000013850400EFF01FAEB9
:1007300093844400130414001374F40F9307F0011E
:10074000E3F287FE8327490013071000638CE7025A
:10075000638E070413072000639AE700032509004E
:100760009305F0FF13050508EFF09F9F8320C1005C
:1007700003248100832441000329010013010101A6
:100780006780000003250900370401009305F4FF8A
:1007900013050508EFF09FA0032509009305F4FF5A
:1007A00013054508EFF09F9F6FF05FFC03250900DC
:1007B0009305F00F13050508EFF05FA50325090069
:1007C0009305F00F13054508EFF05FA4032509001A
:1007D0009305F00F13058508EFF05FA303250900CB
:1007E0009305F00F1305C508EFF05FA26FF01FF837
:1007F0009307F00163F4B70067800000130101FF65
:1008000023261100032705001395250093050600F4
:100810003305A700EFF0DF948320C100130101012D
:100820006FF09FFD130101FF232611002324810097
:1008300023229100130405009384050083274500BB
:10084000130710006388E702638A07041307200078
:100850006398E700032505001305050AEFF05F9094
:100860008320C1000324810083244100130101017E
:1008700067800000032505009395050193D50501C8
:100880001305050AEFF09F910325040093D5040199
:100890001305450AEFF09F906FF09FFC03250500BC
:1008A00093F5F50F1305050AEFF05F960325040095
:1008B00093D5840093F5F50F1305450AEFF01F95C6
:1008C0000325040093D5040193F5F50F1305850A5C
:1008D000EFF0DF930325040093D584011305C50AC7
:1008E000EFF0DF926FF0DFF7130101FF2326110015
:1008F00023248100232291009304050083274500CF
:10090000130710006388E702638A070413072000B7
:10091000639EE7080325050013050509EFF0DF8452
:100920008320C100032481008324410013010101BD
:10093000678000000325050013050509EFF01F87F8
:100940001304050003A5040013054509EFF01F86F5
:10095000131505013365A4006FF09FFC0325050006
:1009600013050509EFF05F8B1304050003A50400D0
:1009700013054509EFF05F8A131585003364A40061
:1009800003A5040013058509EFF01F891315050160
:100990003364A40003A504001305C509EFF0DF8745
:1009A000131585013365A4006FF09FF71305000050
:1009B0006FF01FF7130101FF23261100232481008C
:1009C000232291009304050083274500130710009C
:1009D0006388E702638A070413072000639EE70821
:1009E000032505001305050AEFF00FF88320C10069
:1009F000032481008324410013010101678000006A
:100A0000032505001305050AEFF04FFA130405004E
:100A100003A504001305450AEFF04FF9131505016E
:100A20003365A4006FF09FFC032505001305050A3C
:100A3000EFF0CFF71304050003A504001305450AE2
:100A4000EFF0CFF6131585003364A40003A504006E
:100A50001305850AEFF08FF5131505013364A40023
:100A600003A504001305C50AEFF04FF41315850123
:100A70003365A4006FF09FF7130500006FF01FF7B8
:100A8000130101FF2326110023248100232291005A
:100A90002320210193040500138405001309060097
:100AA00083274500130710006382E7066382070C63
:100AB000130720006398E702032505001305050AC4
:100AC000EFF08FEA631C090293051000B3958500CF
:100AD00093C5F5FFB375B50003A504001305050A1A
:100AE000EFF00FE88320C10003248100832441003C
:100AF0000329010013010101678000009305100024
:100B0000B3958500B365B5006FF01FFD8324050024
:100B100093D7450093972700B384F4009384040A85
:100B200013850400EFF08FE8631609021374F400D4
:100B300093051000B395850093C5F5FFB3F5A500A7
:100B40009395050193D5050113850400EFF00FE59A
:100B50006FF05FF91374F40093051000B3958500EE
:100B6000B3E5A5009395050193D505016FF0DFFD71
:100B70008324050093D7350093972700B384F400AE
:100B80009384040A13850400EFF00FE9631409024B
:100B90001374740093051000B395850093C5F5FF99
:100BA000B3F5A50093F5F50F13850400EFF00FE6FC
:100BB0006FF05FF313747400930510003394850095
:100BC000B365A40093F5F50F6FF01FFE130101FF4D
:100BD0002326110023248100232291009304050081
:100BE0001384050003250500930710006302F60235
:100BF000630A0604930720006300F6088320C100FF
:100C00000324810083244100130101016780000057
:100C10001306100013850400EFF09FE683A704007D
:100C2000131424003384870013050400EFF0CFDE93
:100C30009365450093F5F50F13050400EFF00FDD04
:100C40006FF0DFFB1306000013850400EFF05FE395
:100C500083A70400131424003384870013050400C1
:100C6000EFF08FDB9365450093F5F50F1305040056
:100C7000EFF0CFD96FF09FF813942500330485006F
:100C800013050400EFF04FD99375B5FF1305040069
:100C9000EFF0CFD76FF09FF6032505009307F00123
:100CA00063F4B70067800000130101FF23261100E1
:100CB00023248100939525003304B5001305040017
:100CC000EFF08FD59365850093F5F50F13050400BC
:100CD000EFF0CFD38320C100032481001301010171
:100CE0006FF05FFC032505009307F00163F4B70084
:100CF00067800000130101FF2326110023248100D7
:100D0000939525003304B50013050400EFF0CFD010
:100D1000937575FF13050400EFF04FCF8320C100DA
:100D200003248100130101016FF09FFC130101FFF7
:100D3000232611002324810023229100130405009F
:100D400013071000B314B70083274500638AE70236
:100D5000638A070413072000639AE7000325050050
:100D60009385040013050508EFF08FBF8320C100B1
:100D700003248100832441001301010167800000E6
:100D8000032505009385040013050508EFF00FC146
:100D90000325040093D5040113054508EFF00FC0A7
:100DA0006FF0DFFC0325050093850400130505089B
:100DB000EFF0CFC50325040093D584001305450843
:100DC000EFF0CFC40325040093D504011305850873
:100DD000EFF0CFC30325040093D584011305C508A4
:100DE000EFF0CFC26FF09FF8630A05009307700021
:100DF00063E6D700B72700006364F6006780000051
:100E0000130101FD232611022324810223229102D2
:100E100023202103232E31011389060093040600A9
:100E200093890500130405009375F60F1385890057
:100E3000EFF0CFBD13D654401376867FB365C9005B
:100E40001385C900EFF08FBC2320340113850901FD
:100E5000EFF08FBC137525006F00400203250400DE
:100E600013054500EFF04FBBA307A10003250400C5
:100E700013050501EFF04FBA13752500E31005FEC9
:100E8000230204008320C10203248102832441023F
:100E9000032901028329C101130101036FF01FF629
:100EA00063000508638E050663080602130101FE50
:100EB000232E1100232C8100232A910023282101B5
:100EC0002326310113090600938905001304050048
:100ED000930400006F0000036780000003250400F6
:100EE00013050501EFF04FB313751500E30805FE78
:100EF000B387990083C5070003250400EFF00FB105
:100F000093841400E3EC24FD8320C10103248101B8
:100F100083244101032901018329C1001301010236
:100F200067800000130101FE232E1100232C810095
:100F3000232A910023282101232631016302050879
:100F400063840508631406021304000013050400FB
:100F50008320C1010324810183244101032901016C
:100F60008329C10013010102678000009309060074
:100F700013890500930405000325050013050501E9
:100F8000EFF08FA913751500630405041304000026
:100F9000B307890083C5070003A50400EFF00FA77E
:100FA0001304140003A5040013050501EFF0CFA6F8
:100FB00013751500E30C05F8E36C34FD6FF01FF9B1
:100FC000130400006FF09FF8130400006FF01FF887
:100FD000130400006FF09FF7130101FE232E110090
:100FE000232C8100232A910023282101232631016B
:100FF000232441016302050A6384050A631606027D
:1010000093040000138504008320C101032481019F
:1010100083244101032901018329C100032A81009E
:10102000130101026780000093090600138A05007E
:10103000130405000325050013050501EFF0CF9DFE
:1010400083474400B367F5002302F40013752500BD
:10105000930400006F00800333099A000325040005
:1010600013054500EFF04F9B2300A9009384140063
:101070000325040013050501EFF00F9A8347440090
:10108000B367F5002302F40013752500E30C05F6A1
:10109000E3E434FD6FF01FF7930400006FF09FF658
:1010A000930400006FF01FF6630E050663860502C9
:1010B000130101FE232E1100232C8100232A91000D
:1010C00023282101232631019389050013040500FB
:1010D000930400006F00C002678000000325040035
:1010E00013050501EFF04F9313751500E30805FE96
:1010F0008345090003250400EFF04F919384140009
:101100003389990083470900E39A07FC8320C101D2
:101110000324810183244101032901018329C100A2
:101120001301010267800000630E0500834745003C
:1011300093D7270093F77700230205001385070054
:10114000678000009307F00F6FF05FFF130101FE4F
:10115000232E1100232C8100232A91002328210112
:1011600023263101232441011384050013090600BD
:10117000138A0600930907002320B5009384850095
:101180009306000013062000930510001385040049
:10119000EFE01FFE93060000130610009305000009
:1011A00013850400EFE0DFFC930510001305040134
:1011B000EFE01FFB93050A001305C400EFE05FFAA0
:1011C0009385090013050400EFE09FF9630C090201
:1011D00093061000130640009305200013850400B9
:1011E000EFE01FF98320C101032481018324410121
:1011F000032901018329C100032A8100130101028F
:10120000678000009306000013064000930520004D
:1012100013850400EFE0DFF56FF0DFFC130101FF41
:1012200023261100032505009306100013860600EF
:101230009305000013058500EFE09FF38320C100B4
:101240001301010167800000130101FF2326110033
:101250000325050093060000130610009305000007
:1012600013058500EFE0DFF08320C10013010101C9
:1012700067800000130101FF2326110003250500EC
:1012800093061000130620009385060013058500C1
:10129000EFE01FEE8320C100130101016780000011
:1012A000130101FF232611000325050093051000FB
:1012B00013050501EFE0DFEA8320C10013010101FE
:1012C00067800000130101FF23261100032505009C
:1012D00013054500EFE05FE98320C1001301010120
:1012E00067800000130101FF23261100032505007C
:1012F000EFE01FE78320C1001301010167800000B8
:10130000130101FF2326110023248100130405008B
:101310009306000013061000930500000325050046
:10132000EFE05FF003250400930530001305C501CD
:10133000EFE0DFED032504009305F00F13054500F2
:10134000EFE0DFEC93061000138606009305000023
:1013500003250400EFE01FED8320C100032481007A
:101360001301010167800000130101FF2326110012
:1013700023248100130405006F00C002032504002C
:101380008327840003270401B387E70083C5070090
:101390001305C500EFE0DFDC832704019387170006
:1013A0002328F400032704018327C400637EF70089
:1013B0000325040013068000930530001305050281
:1013C000EFE0DFE8E30C05FA032704018327C400FC
:1013D000637EF7028320C100032481001301010111
:1013E0006780000003250400832744010327C4010C
:1013F000B387E70083C507001305C500EFE05FD69C
:101400008327C40193871700232EF4000327C40108
:1014100083278401E370F7FC032504001306800092
:101420009305300013050502EFE05FE2E30C05FAD7
:101430006FF05FFA130101FF2326110023248100BE
:10144000130405008327850413071000638CE7024B
:10145000130720006388E7060325050093051000A5
:101460001305C501EFE09FDA8320C100032481004A
:10147000130101016780000083270403938717008D
:101480002328F402032504001306400093052000DE
:1014900013050502EFE09FDBE31805FC03250400BC
:1014A00013058500EFE05FCC832704030327C40204
:1014B000E3F4E7FC03278402B307F7002380A700C7
:1014C0006FF09FFB032504001306400093052000E6
:1014D00013050502EFE09FD7E31805F80325040084
:1014E00013058500EFE05FC883274403E38C07FC06
:1014F000E78007006FF01FFD130101FF2326110095
:1015000023248100232291002320210113040500BC
:10151000630805009384050013090600639205041F
:10152000032504009305100013054502EFE01FCECC
:101530000325040013054502EFE01FCE0325040038
:1015400013050502EFE05FCD8320C1000324810075
:101550008324410003290100130101016780000079
:101560001306C00493050000EF308021232094006F
:101570009307F9FF9397070193D707011307F0012A
:101580006366F70623122405930600001306100075
:101590009305000013850400EFE0DFC80325040075
:1015A0009305000013054502EFE05FC60325040024
:1015B000930530001305C501EFE05FC50325040066
:1015C0009305F00F13054500EFE05FC40325040009
:1015D0009305000013058501EFE05FC3930530001C
:1015E00003250400EFE09FC26FF09FF39307100004
:1015F0002312F4046FF05FF9630A0506130101FF7B
:10160000232611002324810013040500232405044C
:101610009306000013061000930500000325050043
:10162000EFE05FC003250400930530001305C501FA
:10163000EFE0DFBD032504009305F00F130545001F
:10164000EFE0DFBC032504009305000013058501CE
:10165000EFE0DFBB9305100003250400EFE01FBBA4
:101660008320C10003248100130101016780000071
:10167000630A0506130101FF2326110023248100BC
:1016800013040500930600001306100093050000E4
:1016900003250500EFE01FB92324040403250400FB
:1016A000930530001305C501EFE05FB60325040084
:1016B0009305F00F13054500EFE05FB50325040027
:1016C0009305000013058501EFE05FB4930530003A
:1016D00003250400EFE09FB38320C10003248100B1
:1016E0001301010167800000630605009307700085
:1016F00063F4B70067800000130101FF2326110087
:101700002324810023229100938405001304050003
:10171000130620009305100003250500EFE01FB31A
:10172000631C05008320C100032481008324410041
:10173000130101016FF01FFC0325040013060001D3
:101740009305400013050502EFE05FB0930710001A
:101750006306F5020325040013054502EFE0DFAB45
:1017600093051000B395950083270400B365B50079
:1017700013854702EFE09FA96FF0DFFA130504001D
:10178000EFF01FB86FF01FFD6306050093077000B0
:1017900063F4B70067800000130101FF23261100E6
:1017A0002324810023229100938405001304050063
:1017B000130620009305100003250500EFE01FA984
:1017C000631C05008320C1000324810083244100A1
:1017D000130101016FF01FFC032504001306000133
:1017E0009305400013050502EFE05FA69307100084
:1017F0006308F5020325040013054502EFE0DFA1AD
:1018000093051000B395950093C5F5FF8327040059
:10181000B375B50013854702EFE05F9F6FF09FFA45
:1018200013050400EFF0DFAD6FF0DFFC130101FEE4
:10183000232E1100232C8100232A9100232601004E
:1018400063000502938405001304050013062000BD
:101850009305100003250500EFE05F9F631E050060
:101860000325C1008320C101032481018324410198
:101870001301010267800000032504009305300076
:101880001305C501EFE09F9803250400938504002C
:1018900013058502EFE0DF8C03250400130620000A
:1018A0009305100013050502EFE05F9A93071000FF
:1018B000E314F5FE0325040013058500EFE0DF8A3D
:1018C0002326A1006FF0DFF963020508130101FD73
:1018D00023261102232481022322910223202103A3
:1018E000232E3101232C4101232A51012328610198
:1018F0002326710193090700138B0600930A060043
:10190000938B050093040500130620009305100037
:1019100003250500EFE09F9363060500B3893A01B4
:10192000639809028320C1020324810283244102B7
:10193000032901028329C101032A8101832A41016C
:10194000032B0101832BC1001301010367800000F9
:101950009389F9FF03A50400930530001305C50121
:10196000EFE0DF8A03A504001306000193054000A1
:1019700013050502EFE09F8D930710006300F50249
:1019800093060000130610009305000003A5040051
:10199000EFE05F89130400006F00C00213850400AC
:1019A000EFF01F966FF0DFFD03A504009305000024
:1019B0001305C500EFE0CFFA13041400131404015B
:1019C00013540401930704006374340303D74404DD
:1019D0006370E402E37A54FD03A50400B387FB00BF
:1019E00083C507001305C500EFE08FF76FF0DFFC3C
:1019F0006382F90293061000138606009305000027
:101A000003A50400EFE01F8213090400130A00007D
:101A10006F00C00803D74404E37EE4FC63745403FE
:101A200003A50400B387FB0083C5070013058502E7
:101A3000EFE00FF313041400131404011354040112
:101A40006FF05FFB03A504009305000013058502FA
:101A5000EFE00FF16FF01FFE03A50400B3878B00CA
:101A600083C5070013058502EFE08FEF1304140010
:101A70001314040113540401130919001319090163
:101A80001359090103A50400130640009305200023
:101A900013050502EFE08FFB63060502637454072C
:101AA00083D74404E370F9FEE38889FA03A50400B0
:101AB000B3878B0083C507001305C500EFE04FEA2D
:101AC0006FF0DFFA03A5040013058500EFE0CFE90E
:101AD000130A1A00131A0A01135A0A011309F9FF0B
:101AE00013190901135909016FF05FFB03A50400E5
:101AF000130640009305200013050502EFE00FF5E3
:101B00006300050463725A0783D74404E370F9FE47
:101B1000E37E34FD03A50400930500001305C50012
:101B2000EFE00FE413041400131404011354040130
:101B30001309190013190901135909016FF01FFB4B
:101B400003A5040013058500EFE00FE2130A1A0055
:101B5000131A0A01135A0A011309F9FF131909018B
:101B6000135909016FF01FFA930A0000637C340BCC
:101B700083D74404636CF90403A5040013064000F2
:101B80009305200013050502EFE04FECE31005FE7E
:101B9000B30B5B0103A5040013058500EFE0CFDC68
:101BA0002380AB00938A1A00939A0A0193DA0A0100
:101BB000130A1A00131A0A01135A0A011309F9FF2A
:101BC00013190901135909016FF05FFA03A5040005
:101BD000930500001305C500EFE08FD8130414002F
:101BE00013140401135404011309190013190901F2
:101BF000135909016FF05FF803A504009305000075
:101C000013058502EFE0CFD513041400131404016B
:101C10001354040113091900131909011359090177
:101C20006F0000016390890683D74404E366F9FCE2
:101C300003A50400130640009305200013050502C8
:101C4000EFE0CFE0E31005FEB30B5B0103A504005A
:101C500013058500EFE04FD12380AB00938A1A0073
:101C6000939A0A0193DA0A01130A1A00131A0A0155
:101C7000135A0A011309F9FF13190901135909012C
:101C80006FF05FFAE3E049CB03A5040013064000C0
:101C90009305200013050502EFE04FDBE31405FE7A
:101CA00033045B0103A5040013058500EFE0CFCBEF
:101CB0002300A400938A1A00939A0A0193DA0A0176
:101CC000130A1A00131A0A01135A0A016FF09FFB34
:101CD00063000504130101FF232611002324810062
:101CE00023229100938405001304050013062000AD
:101CF0009305100003250500EFE04FD5630C0500A8
:101D00008320C100032481008324410013010101C9
:101D10006780000093060000130610009305000082
:101D200003250400EFE00FD0032504009305F00F16
:101D300013054500EFE08FCD032504009306000056
:101D4000130600029305500013058501EFE08FCDC7
:101D500003250400930600001306000193054000CC
:101D600013058501EFE00FCC23200404232A9402FD
:101D70000327840493072000630CF70093060000F8
:101D8000130680009305300003250400EFE08FC99F
:101D900003250400930530001305C501EFE00FC7CC
:101DA000930610001306000193054000032504006C
:101DB000EFE04FC793061000130600029305500092
:101DC00003250400EFE00FC603250400930610006E
:101DD000130600049305600013058501EFE08FC42E
:101DE000930720002324F4049306100013860600B2
:101DF0009305000003250400EFE0CFC26FF05FF011
:101E000063060504130101FF23261100232481002A
:101E10002322910023202101130906009384050049
:101E20001304050013062000930510000325050088
:101E3000EFE0CFC1630E05008320C10003248100C1
:101E40008324410003290100130101016780000080
:101E500093060000130610009305000003250400FC
:101E6000EFE04FBC032504009305F00F1305450078
:101E7000EFE0CFB90325040093060000130600022B
:101E80009305500013058501EFE0CFB90325040049
:101E90009306000013060001930540001305850119
:101EA000EFE04FB80327840493072000630EF70088
:101EB0000325040093060000130600049305600048
:101EC00013058501EFE00FB6232404002326040048
:101ED0002328040003250400930530001305C501E1
:101EE000EFE0CFB2232E2403232C94020325040019
:101EF0009385040013058502EFE08FA6930610007A
:101F0000130680009305300003250400EFE08FB135
:101F1000930720002324F404930610001386060080
:101F20009305000003250400EFE0CFAF6FF0DFF072
:101F300063080506130101FE232E1100232C8100E6
:101F4000232A910023282101232631012324410142
:101F500023225101938A070093090700138A060080
:101F600093040600138905001304050013062000DE
:101F70009305100003250500EFE04FAD6304050253
:101F80008320C1010324810183244101032901012C
:101F90008329C100032A8100832A41001301010221
:101FA00067800000930600001306100093050000F0
:101FB00003250400EFE00FA7930710002324F40487
:101FC0002322F402232A0402232E04022320540590
:101FD0002324440323263403232804022324240136
:101FE00023269400232804000325040093053000D1
:101FF0001305C501EFE08FA1032504009305F00F41
:1020000013054500EFE08FA06F0080020325040058
:1020100083278400B387E70083C507001305C50045
:10202000EFE00F9483270401938717002328F4001F
:1020300003250400130680009305300013050502F4
:10204000EFE0CFA063180500032704018327C40035
:10205000E36EF7FA03250400930600001306000858
:102060009305700013058501EFE0CF9B93061000E8
:10207000130600019305400003250400EFE08F9A4A
:102080009306100013060002930550000325040078
:10209000EFE04F9903250400930610001306000497
:1020A0009305600013058501EFE0CF970325040039
:1020B00093061000130600029305500013058501D6
:1020C000EFE04F960325040093060000130600017D
:1020D0009305400013058501EFE0CF9493061000AF
:1020E000138606009305000003250400EFE08F939C
:1020F0006FF01FE9630C0508630A0608638805088A
:10210000130101FF232611002324810023229100C3
:102110002320210193040600138905001304050000
:102120009306000013061000930500000325050028
:10213000EFE04F8F23220402232024030325040011
:1021400013058501EFE04F8D137585FF13F67400BD
:102150003366C50003250400936506051305850154
:10216000EFE0CF8A93061000138606009305000067
:1021700003250400EFE00F8B8320C10003248100BE
:10218000832441000329010013010101678000003D
:10219000630605026304060263820502130101FF60
:1021A00023261100232AB500232CC500232E050069
:1021B000EFF08F9B8320C1001301010167800000B5
:1021C00063040502130101FF23261100930610008A
:1021D000138606009305000003250500EFE08F84B9
:1021E0008320C10013010101678000006304050220
:1021F000130101FF232611009306000013061000AF
:102200009305000003250500EFE0CF818320C10086
:1022100013010101678000006308050C130101FF31
:10222000232611002324810023229100130405009A
:10223000032505001306000493056000130505013E
:10224000EFE0CF80930710006302F50A0325040036
:10225000130610009305000013050501EFD01FFFC2
:1022600093071000630AF5240325040013064000B9
:102270009305200013050501EFD05FFD93071000C3
:10228000630EF52803250400130680009305300033
:1022900013050501EFD09FFB930710006306F52A95
:1022A0000325040013060001930540003305C50013
:1022B000EFD0DFF993071000630EF52A0325040021
:1022C000130600029305500013050501EFD01FF817
:1022D00093071000630CF52E8320C10003248100B6
:1022E00083244100130101016780000083278404D7
:1022F000130710006382E704130720006384E718C4
:1023000003250400930510001305C501EFD01FF04D
:1023100003250400930610001306000493056000D3
:1023200013054500EFD01FF06FF05FF28327040321
:10233000938717002328F4020325040013064000A6
:102340009305200013050502EFD05FF0631A050422
:102350000325040013058500EFD01FE18327040344
:102360000327C402E3F4E7FC03278402B307F70062
:102370002380A7006FF09FFB0325040083278400C0
:1023800003270401B387E70083C507001305C500D1
:10239000EFD01FDD83270401938717002328F40063
:1023A000032704018327C400637EF700032504008C
:1023B000130680009305300013050502EFD01FE9D6
:1023C000E30C05FA032704018327C400637EF704A6
:1023D00083274402E38E07F2032704018327C40006
:1023E000E368F7F20327C40183278401E362F7F26D
:1023F0008354440493D42400938414006F00800613
:1024000003250400832744010327C401B387E700A1
:1024100083C507001305C500EFD09FD48327C401EF
:1024200093871700232EF4000327C4018327840118
:10243000E370F7FA032504001306800093053000CB
:1024400013050502EFD09FE0E30C05FA6FF05FF88B
:1024500003250400930500001305C500EFD05FD0ED
:102460009384F4FF032504001306800093053000D5
:1024700013050502EFD09FDDE31C05E8E39A04FC99
:102480006FF01FE9032504001306400093052000A8
:1024900013050502EFD09FDBE31C05E603250400CE
:1024A00013058500EFD05FCC83274403E38C07FC42
:1024B000E78007006FF01FFD8327840413072000C7
:1024C000638CE70213071000638AE700032504000A
:1024D000930520001305C501EFD05FD30325040049
:1024E00093061000138606009305000013054500AF
:1024F000EFD05FD36FF05FD78327C40363860700F5
:1025000013050400E78007000325040083258403E6
:1025100013058502EFD0DFC46FF05FFC03250400D4
:10252000938507001305C501EFD05FCE0325040096
:102530009306100013064000930520003305C500E4
:10254000EFD05FCE6FF01FD4032504009305200069
:102550001305C501EFD09FCB03250400930610009F
:10256000130680009305300013054500EFD09FCB84
:102570006FF01FD313050400EFE0DFEB83270402A5
:10258000638807008325040303258402E78007008E
:1025900093041000232294020325040093060000F4
:1025A000130600019305400013058501EFD09FC776
:1025B00003250400938604001306000193054000E0
:1025C0003305B500EFD01FC66FF05FCF032784043B
:1025D0006300F702032504009306100013060002AF
:1025E0009305500013054500EFD0DFC36FF0DFCE39
:1025F00013050400EFE01FE483240403832704028F
:102600006382070423220402232A0400232C0400EB
:10261000232E040003250400930610001306000176
:10262000930540003305B500EFD0DFBF032504005C
:102630009306100013060001930540001305850161
:10264000EFD05FBE2328040003250400930530006B
:102650001305C501EFD09FBB13050400EFE0DFD0E9
:102660002328040283270404638807009385040059
:1026700003258402E7800700032504009306100069
:10268000130600049305600013054500EFD09FB9C1
:102690006FF05FF4930705006F00C0002380070010
:1026A000938717003307B500E3EAE7FE6780000071
:1026B000130101FF2326110023248100232291000E
:1026C0002320210113040500930406002320B500F4
:1026D0002322C4002324D500732940F11315790067
:1026E0003385A5009305860093D53500B7270000F4
:1026F0003305F500EFF01FFA93851400939525003C
:1027000003250400EFF01FF9832704001319C90003
:10271000B387270137072000B387E70023A007000E
:102720008320C10003248100832441000329010088
:102730001301010167800000F32740F10327050022
:102740009397C700B307F70037072000B387E70068
:1027500023A0B70067800000F32740F1032705009E
:1027600093977700B307F70013D73500B387E700D7
:1027700037270000B387E70003C707009376F70FFA
:1027800093F57500130710003317B7003367D700B0
:102790001377F70F2380E70067800000F32740F1ED
:1027A0000327050093977700B307F70013D7350089
:1027B000B387E70037270000B387E70003C70700A8
:1027C0009376F70F93F57500130710003317B700D2
:1027D0001347F7FF3377D7002380E70067800000B7
:1027E00083278500638A07008327050093952500CA
:1027F000B385B70023A0C50067800000F32740F130
:10280000032705009397C700B307F7003707200099
:1028100013074700B387E70003A5070067800000A0
:10282000F32740F1032705009397C700B307F7008C
:102830003707200013074700B387E70023A0B7003E
:1028400067800000130101FE232E1100930700078B
:102850002307F100130710009306F1001306070089
:102860009305E1003705108013050508EFF0CF85CB
:102870000345F1009317850193D78741E3DC07FCFB
:102880008320C1011301010267800000130101FED2
:10289000232E1100930750002307F10013071000A7
:1028A0009306F100130607009305E1003705108039
:1028B00013050508EFF04F810345F100137515006E
:1028C000A307A100E31C05FC8320C1011301010241
:1028D00067800000130101FE232E1100232C8100CC
:1028E000232A910023282101232631011309050001
:1028F0001304060093890600930407006316060478
:10290000639E04043306940013070000930600003E
:102910001316060113560601B705108093850508A6
:102920009385C50413050900EFE01FFA8320C10158
:102930000324810183244101032901018329C1006A
:102940001301010267800000370510801305050898
:102950001305C504EF1010516FF09FFA13860400A1
:102960009385090037051080130505081305C50474
:1029700033058500EF10104F6FF0DFF8130101FFF2
:10298000232611002324810037041080130600023F
:10299000B765007013050408EFE01FB613050408BF
:1029A000EFE01FCD9305000013050408EFE0DFD32F
:1029B000130500008320C1000324810013010101DD
:1029C00067800000130101FE232E1100232C8100DB
:1029D000232A910013840500930750006304F53205
:1029E0009304060063F8A704930780006308F524A6
:1029F00063FCA7069307A0006308F52A636EF50839
:102A00009307B000631EF54E9307C0032306F10041
:102A100093D70501A306F10093D785002307F100A2
:102A2000A307B100EFF09FE66300054A13055000CD
:102A30006F00800A9307300063E8A74493072000E3
:102A40006376F5186306051093071000631AF54ABC
:102A5000930760002306F100EFF05FE363080508C9
:102A6000130550006F00400793076000630AF532BA
:102A7000930770006316F548B707FFFF33F4F500BE
:102A8000930760002306F100EFF05FE0630C053868
:102A9000130550006F0040049307F0F9A305F100FF
:102AA000130730009306C100130610009305B10010
:102AB0003705108013050508EFE01FE18347C100CB
:102AC0002380F4008347D100A380F4008347E10012
:102AD0002381F400130500008320C1010324810138
:102AE00083244101130101026780000013070000E5
:102AF00093060000130610009305C10037051080EF
:102B000013050508EFE05FDC930760032306F1007F
:102B100093570401A306F100935784002307F100A3
:102B2000A3078100EFF09FD6E31C05F21307000016
:102B300093060000130640009305C100370510807E
:102B400013050508EFE05FD8130500006FF0DFF80C
:102B5000930760002306F100EFF05FD363060500E2
:102B6000130550006FF05FF7130700009306000095
:102B7000130610009305C1003705108013050508E2
:102B8000EFE09FD4930790032306F10093570401CD
:102B9000A306F100935784002307F100A3078100E7
:102BA000EFF0DFCEE31E05FA1307000093060000E6
:102BB000130640009305C100370510801305050872
:102BC000EFE09FD0130500006FF01FF19307600046
:102BD0002306F100EFF09FCB6306050013055000BC
:102BE0006FF09FEF1307000093060000130610001C
:102BF0009305C1003705108013050508EFE0DFCC11
:102C0000930710002306F100A3060100EFF01FC890
:102C1000E31605FC130700009306000013062000CE
:102C20009305C1003705108013050508EFE0DFC9E3
:102C3000EFF0DFC5E31405FA6FF01FEA93076000B9
:102C40002306F100EFF09FC4630605001305500052
:102C50006FF09FE8130700009306000013061000B2
:102C60009305C1003705108013050508EFE0DFC5A7
:102C7000930700062306F100EFF05FC1E31805FC9F
:102C80001307000093060000130610009305C1000F
:102C90003705108013050508EFE01FC3EFF01FBFD5
:102CA000E31605FA6FF05FE3930760062306F10071
:102CB000370410801307000093060000130610006D
:102CC0009305C10013050408EFE01FC0930790F9B6
:102CD0002306F100130700009306000013061000FE
:102CE0009305C10013050408EFE01FBEEFF01FBA03
:102CF00063060500130550006FF01FDE130500008A
:102D00006FF09FDDB7F7FFFF33F4F5009307600026
:102D10002306F100EFF09FB763060500130550008E
:102D20006FF09FDB130700009306000013061000EE
:102D30009305C1003705108013050508EFE0DFB8E3
:102D4000EFF0DFB4E31C05FC930700022306F1005B
:102D500093570401A306F100935784002307F10061
:102D6000A3078100EFF09FB2E31A05FAEFF09FADE1
:102D70001307000093060000130640009305C100EE
:102D80003705108013050508EFE01FB4EFF01FB002
:102D9000E31605F8EFF01FAB130500006FF0DFD36B
:102DA000B787FFFF33F4F500930760002306F100B7
:102DB000EFF0DFAD130700009306000013061000CC
:102DC0009305C1003705108013050508EFE0DFAF5C
:102DD000930720052306F10093570401A306F10091
:102DE000935784002307F100A3078100EFF01FAA87
:102DF00063060500130550006FF01FCE1307000097
:102E000093060000130640009305C10037051080AB
:102E100013050508EFE05FABEFF05FA7E31C05FCCF
:102E20006FF09FCB130700009306000013061000FD
:102E30009305C1003705108013050508EFE0DFA8F2
:102E4000930780FD2306F10093570401A306F100C8
:102E500023070100A3078100EFF05FA3E31A05C277
:102E60001307000093060000130640009305C100FD
:102E70003705108013050508EFE01FA5EFF01FA12F
:102E8000E31805C06FF05FC593075000A305F1007C
:102E9000130720009306C100130610009305B1002C
:102EA0003705108013050508EFE01FA28347D10006
:102EB000139787008347C100B3E7E7002390F4002E
:102EC000130500006FF05FC1130710009386040024
:102ED000130640009305C10037051080130505084F
:102EE000EFE09F9EEFF09F9A6308050093071000A4
:102EF0002380F4006FF09FB3130500006FF0DFBD77
:102F0000130530006FF05FBD130101FE232E110089
:102F1000232C8100232A91001384050093040600CA
:102F2000930730002304F10093570501A304F10037
:102F3000935785002305F100A305A1002306010096
:102F4000A3060100EFF01F90EFF05F94630E050001
:102F5000130550008320C101032481018324410112
:102F60001301010267800000EFF0DF8D1397040169
:102F700013570701930604001306400093058100D0
:102F80003705108013050508EFE01F94EFF09F8BC5
:102F9000130500006FF01FFC130101FD2326110231
:102FA000232481022322910223202103232E310195
:102FB000232C410113040500138A05009309060020
:102FC0009304600023069100EFF05F8C37091080B6
:102FD0001307000093060000130610009305C100BC
:102FE00013050908EFE05F8E930790032306F100B5
:102FF00093570401A306F100935784002307F100BF
:10300000A3078100EFF09F881307000093060000DC
:10301000130640009305C10013050908EFE0DF8A9D
:10302000EFF05F8223069100EFF05F8663040502F4
:10303000130550008320C10203248102832441022E
:10304000032901028329C101032A8101130101031C
:1030500067800000130700009306000013061000AD
:103060009305C10013050908EFE01F86130900004E
:103070006F000008EFF09F81631C050C9307600050
:103080002306F1001307000093060000130610004A
:103090009305C1003705108013050508EFE0DF82B6
:1030A000EFF0CFFE631A050A930720002306F10014
:1030B00093570401A306F100935784002307F100FE
:1030C000A30781001397040113570701B3062A01D0
:1030D000130640009305C10037051080130505084D
:1030E000EFF04FFF3304940033099900EFF08FF5B0
:1030F00063723903EFF00FF51377F40F93070010A5
:10310000B387E740B3842941E3E6F4F693840700EC
:103110006FF05FF6930740002306F100EFF00FF722
:1031200063060500130550006FF0DFF01307000081
:1031300093060000130610009305C10037051080A8
:1031400013050508EFE04FF8130500006FF09FEE40
:10315000130550006FF01FEE130550006FF09FED48
:10316000B707108003A787069307803E3305F50253
:10317000B707108083A78706B387E740E3EAA7FE77
:10318000678000001307150083470500130507003B
:1031900093060002E388D7FE130500006F00C0010C
:1031A00093162500B386A600139516003385A70055
:1031B0008347070013071700938707FD93F7F70F5F
:1031C00093069000E3FEF6FC67800000130101FD0A
:1031D000232611022324810223229102232021038A
:1031E000232E3101634E05046354A008B7071080F5
:1031F00003A987069304803EB30495029309F0FF68
:103200001304000063140408130610009305F10072
:103210003705108013050505EFD01FDC6306050098
:103220008349F10013041000B707108083A78706B5
:10323000B3872741E3E897FC130410006FF09FFC6D
:103240009309F0FF13040000631204041306100036
:103250009305F1003705108013050505EFD0DFD782
:10326000E30405FE8349F100130410006FF0DFFD55
:10327000130610009305F1003705108013050505AE
:10328000EFD09FD5630405028349F100138509003F
:103290008320C10203248102832441020329010205
:1032A0008329C10113010103678000009309F0FF26
:1032B0006FF0DFFD930700006F00C00493971700C5
:1032C0003715000013051502B3C7A7009397070130
:1032D00093D70701130717009306700063C0E60237
:1032E0009396070193D60641E3CA06FC939717000D
:1032F0009397070193D707016FF0DFFD9305060051
:10330000130508001386F5FF638E050013081500EA
:103310000347050013178700B347F70013070000A2
:103320006FF09FFB1385070067800000130101FE0B
:10333000232E1100232C8100232A91002328210110
:10334000232631012324410123225101130A0500C0
:10335000938A050023A0050013051000EFF01FE776
:10336000634A050E930720006308F50663D0A7049F
:10337000930740006306F50493078001631AF50084
:1033800013051000EFF09FE493078001630EF50230
:103390009307F0FF23A0FA001309C0FF631E090A78
:1033A0002300AA00130410006F00400493071000CC
:1033B000E310F5FE93090008130900006FF01FFEEB
:1033C0001309E0FF6FF09FFD9307F0FF23A0FA00C1
:1033D0001309D0FF6FF09FFC930900401309000010
:1033E0006FF0DFFB1309F0FF1304140093875900FB
:1033F000930404006370F402631E090013051000B7
:10340000EFF0DFDCE34005FEB3049A002380A40064
:103410006FF09FFD631E090003471A0083472A00CF
:1034200093C7F7FF93F7F70F6304F7001309100032
:10343000631C09009385290013053A00EFF09FE70C
:1034400063040500130910006318090023A03A0162
:103450006F0080001309F0FF9307F0FF6346F90245
:10346000130509008320C101032481018324410144
:10347000032901018329C100032A8100832A410015
:103480001301010267800000130900006FF05FFD67
:10349000130101FE232E1100A307A1001306100043
:1034A0009305F1003705108013050505EFD05F9FE8
:1034B0008320C1011301010267800000130101FF95
:1034C000232611002324810013040500EF10003986
:1034D0001306050093050400370510801305050544
:1034E000EFD01F9C8320C100032481001301010140
:1034F00067800000130101FA232E1104232C81049C
:10350000232A91042328210523263105232441055C
:103510002322510523206105232E7103232C8103CF
:10352000232A91032328A1032326B103930B05002B
:10353000938C0500130B0000130D0000930710007F
:10354000930D0000930A00006F00802813053004DB
:10355000EFF01FF46F00402813056000EFF05FF3F9
:10356000930D000093091000138909006F00401D9E
:1035700013056000EFF0DFF1130B1000930D000056
:1035800013090B006F00C01B6310072013053004E4
:10359000EFF01FF0930D00006F00801A63060A061B
:1035A000B387F400B387774163F2FC1613058001FB
:1035B000EFF01FEE13058001EFF09FED13051000F3
:1035C000EFF01FBA93091000138909006F0040152E
:1035D000B70710809387471DB387E70083C70700AD
:1035E000B38DFD001307170093076000E3D2E7FED9
:1035F00063840D0E13070400B70710809387471DDF
:10360000938737006F008001930D0A001307300085
:103610006FF09FFD130717009387170083C60700FD
:10362000638A06009306F003E3D6E6FE6F0080008F
:103630009387170003C70700E31C07FE9387170053
:10364000130704006F00800193871700130601021F
:103650003306E6002306D6FE1307170083C60700CD
:10366000638A0600130600026386C6001306F00094
:10367000E35CE6FC930701023387E700230607FEBD
:103680001305C100EFF01FB0130D050063F4AC0289
:1036900013058001EFF0DFDF13058001EFF05FDF3E
:1036A00013051000EFF0DFAB930910001389090038
:1036B0006F00000713056000EFF09FDD630A0C0048
:1036C00013053004EFF0DFDC130C04006F0040053D
:1036D000130550016FF01FFF13056000EFF05FDB73
:1036E00093091000138909006F0080053387840057
:1036F00093063400B70710809387471DB387D70020
:1037000083C707002300F7001304140083278100F8
:10371000E34EF4FCB384F40013056000EFF05FD7D0
:10372000130A1A00930D00006F00800163080A005D
:10373000938D1D009307400063E0B707638009087D
:103740006314090893058100370510801305451D92
:10375000EFF0DFBD13040500E31A05FC83278100A9
:103760001307F0FFE38AE7DEE38407E03707108002
:103770001307471D034717009376FA0FE300D7E2BC
:1037800093071000E302FAE013055001EFF05FD059
:10379000930D00006FF0DFFA13058001EFF05FCFAB
:1037A00013058001EFF0DFCE13051000EFF05F9BF3
:1037B00093091000138909006FF05FF813053004B6
:1037C000EFF01FCD6FF0DFF793870A00938A0900AF
:1037D00063900A02E38C07D693840B0093890A0056
:1037E00013890A00130A0000130C10006FF05FF534
:1037F000930710006302FB0413050B008320C1052F
:103800000324810583244105032901058329C1047B
:10381000032A8104832A4104032B0104832BC1035F
:10382000032C8103832C4103032D0103832DC1024B
:103830001301010667800000130B0D006FF0DFFB22
:10384000B700008067800000130101FE232E1100E5
:1038500093072000A307F100930730002324F10011
:10386000930710002300F500A307F1009307100051
:103870002324F1008347F10093F7F70F032781001A
:10388000639AE7028347F10093F7F70F13071000DD
:103890006392E702B75500609385C57337051080C2
:1038A00013050505EFD05F808320C10113010102DC
:1038B00067800000B7550060938545753705108017
:1038C00013050505EFD04FFE6FF01FFE130101FF3A
:1038D00023261100B7450000EFF0DFC18320C100AF
:1038E0001301010167800000130101FE232E110066
:1038F000232C8100232A910023282101130905008C
:10390000EFF0CF871306E100930500001305A00038
:10391000EFF04F8B13068100930500001305900014
:10392000EFF04F8A13068100930500001305900005
:10393000EFF04F891306E1009305000013054000E6
:10394000EFF04F88130681009305000013059000E7
:10395000EFF04F8713040000930400006F00000293
:10396000130600109305090013850400EFF0CFD96A
:10397000130909109384041013041400930700081A
:10398000E310F4FEB7550060938585763705108007
:1039900013050505EFD04FF1130500008320C10189
:1039A0000324810183244101032901011301010240
:1039B00067800000130101DD2326112223248122C8
:1039C0002322912223202123232E312113090500B4
:1039D000EFE0DFFA1306E100930500001305A000F5
:1039E000EFE05FFE130681009305000013059000D1
:1039F000EFE05FFD130681009305000013059000C2
:103A0000EFE05FFC1306E1009305000013054000A2
:103A1000EFE05FFB130681009305000013059000A3
:103A2000EFE05FFA9304000093070008639AF4261E
:103A300013940401130681009305040013059000FC
:103A4000EFE05FF813060000930500001305000087
:103A5000EFE05FF713068100930504001305900063
:103A6000EFE05FF613060000930500001305500019
:103A7000EFE05FF513068100930504001305900045
:103A8000EFE05FF4130600109385040013050111A5
:103A9000EF00104FB77763729387D7942328F11004
:103AA000B777656D9387F736232AF110B727464C11
:103AB00093879706232CF110B75748209387173424
:103AC000232EF110B7677374938747572320F112A1
:103AD00023020112130600109305011113050000C3
:103AE000EFF08FCB130681009305040013059000BF
:103AF000EFE05FED130600009305000013051000D2
:103B0000EFE05FEC130681009305040013059000BD
:103B1000EFE05FEB13060000930500001305500073
:103B2000EFE05FEA1306810093050400130590009F
:103B3000EFE05FE91306E100930500001305400084
:103B4000EFE05FE813068100930504001305900081
:103B5000EFE05FE713060010930501011305000075
:103B6000EFF08FBA1306810093050400130590004F
:103B7000EFE05FE513060000930500001305000069
:103B8000EFE05FE413068100930504001305900045
:103B9000EFE05FE3130600009305000013055000FB
:103BA000EFE05FE213068100930504001305900027
:103BB000EFE05FE11306E10093050000130540000C
:103BC000EFE05FE013068100930504001305900009
:103BD000EFE05FDF1306000093050000130500000F
:103BE000EFE05FDE130681009305040013059000EB
:103BF000EFE05FDD130600009305000013055000A1
:103C0000EFE05FDC130681009305040013059000CC
:103C1000EFE05FDB130600109305010113050000C0
:103C2000EFF08FAE1306810093050400130590009A
:103C3000EFE05FD913040000930700086310F40855
:103C4000130681009315040113059000EFE09FD740
:103C5000930400001304000093070008639EF40619
:103C600013040000930700086314F414B7550060B0
:103C7000938505783705108013050505EFD0CFC271
:103C8000130500008320C1220324812283244122C2
:103C9000032901228329C121130101236780000028
:103CA0009307010133869700939504011305B00033
:103CB000EFE05FD1938414006FF01FD793070111D9
:103CC00033868700931504011305B000EFE09FCF02
:103CD000130414006FF05FF61306001093850400C0
:103CE00013050111EF00D029B77763729387D7943A
:103CF0002328F110B777656D9387F736232AF110E3
:103D0000B727464C93879706232CF110B7574820C6
:103D100093871734232EF110B7677374938747572F
:103D20002320F112230201129309040093170401C6
:103D300093D70701639A0700130600009305040058
:103D400013050000EFE01FC8B71700009387F7FFC7
:103D5000B3F7F900639A0700130600009385090082
:103D600013055000EFE01FC613060010930509006D
:103D700013850900EFF04FA213060010930501010F
:103D800013850900EFF04F98130600109305010109
:103D900013050900EF00D005630405006F00000063
:103DA0001309091013040410938414006FF0DFEA60
:103DB0009307011133868700931504011305B000A2
:103DC000EFE05FC0130414006FF0DFE9130101DEC0
:103DD000232E1120232C8120232A912023282121E6
:103DE000EFE0DFB91306E100930500001305A00022
:103DF000EFE05FBD130681009305000013059000FE
:103E0000EFE05FBC130681009305000013059000EE
:103E1000EFE05FBB1306E1009305000013054000CF
:103E2000EFE05FBA130681009305000013059000D0
:103E3000EFE05FB993040000930700086398F4264D
:103E400013940401130681009305040013059000E8
:103E5000EFE05FB7130600009305000013050000B4
:103E6000EFE05FB613068100930504001305900090
:103E7000EFE05FB513060000930500001305500046
:103E8000EFE05FB413068100930504001305900072
:103E9000EFE05FB3130600109385040013050111D2
:103EA000EF00100EB77763729387D7942328F11031
:103EB000B777656D9387F736232AF110B727464CFD
:103EC00093879706232CF110B75748209387173410
:103ED000232EF110B7677374938747572320F1128D
:103EE00023020112130600109305011113050000AF
:103EF000EFF08F8A130681009305040013059000EC
:103F0000EFE05FAC130600009305000013051000FE
:103F1000EFE05FAB130681009305040013059000EA
:103F2000EFE05FAA130600009305000013055000A0
:103F3000EFE05FA9130681009305040013059000CC
:103F4000EFE05FA81306E1009305000013054000B1
:103F5000EFE05FA7130681009305040013059000AE
:103F6000EFE05FA6130600109305010113050000A2
:103F7000EFE09FF9130681009305040013059000FC
:103F8000EFE05FA413060000930500001305000096
:103F9000EFE05FA313068100930504001305900072
:103FA000EFE05FA213060000930500001305500028
:103FB000EFE05FA113068100930504001305900054
:103FC000EFE05FA01306E100930500001305400039
:103FD000EFE05F9F13068100930504001305900036
:103FE000EFE05F9E1306000093050000130500003C
:103FF000EFE05F9D13068100930504001305900018
:10400000EFE05F9C130600009305000013055000CD
:10401000EFE05F9B130681009305040013059000F9
:10402000EFE05F9A130600109305010113050000ED
:10403000EFE09FED13068100930504001305900047
:10404000EFE05F981304000093070008631EF40676
:10405000130681009315040113059000EFE09F966D
:1040600093040000130400009307803E639CF40651
:1040700013040000930700086310F416B75500609E
:10408000938585793705108013050505EFD0CF811D
:10409000130500008320C1210324812183244121B1
:1040A0000329012113010122678000009307010108
:1040B00033869700939504011305B000EFE09F90BD
:1040C000938414006FF05FD7930701113386870044
:1040D000931504011305B000EFE0DF8E1304140004
:1040E0006FF09FF61306001093850400130501116D
:1040F000EF000069B77763729387D7942328F11094
:10410000B777656D9387F736232AF110B727464CAA
:1041100093879706232CF110B757482093871734BD
:10412000232EF110B7677374938747572320F1123A
:1041300023020112130904009317040193D7070106
:10414000639A07001306000093050400130500009E
:10415000EFE05F87B71700009387F7FFB377F900A9
:10416000639A070013060000930509001305500029
:10417000EFE05F8513060010930501111305090098
:10418000EFE09FE1130600109305010113050900FC
:10419000EFE09FD7130600109305010113050111ED
:1041A000EF000045630405021306810093950401A6
:1041B00013059000EFE01F811306E1009305000056
:1041C0001305A000EFE01F806FF01FFE1304041022
:1041D000938414006FF05FE9930701113386870021
:1041E000931504011305B000EFE0CFFD1304140094
:1041F0006FF05FE8130101EF2326111023248110D3
:104200002322911023202111B707108023A4070631
:1042100037091080930600001306F001B70500402F
:104220001305C95DEFE0CFC813062000B725007065
:10423000370410801305C406EFC00FCC130600002E
:10424000930500001305C406EFC09F83130600000A
:10425000930510001305C406EFC09F82930610005B
:104260001306C002B7150070B7041080138504054B
:10427000EFC09FB7B75500609385457B1385040554
:10428000EFC09FE21307A0329306900013060000D0
:10429000B7350070B704108013850406EFC01FEB1C
:1042A000130610009305E0011305C95DEFE04FD33D
:1042B0009305E0011305C95DEFE00FCAB7170000D1
:1042C00093870780F3A74730F36704301307100084
:1042D000B707108023A2E70613850406EFC09FF9F5
:1042E00013850406EFC09FF313850406EFC01FF388
:1042F0001305C406EFC04FDF13751500630E0508E4
:10430000375400601304447B9305442DB704108098
:1043100013850405EFC05FD99305443E138504055A
:10432000EFC09FD8130410006306040E130600109C
:10433000930501003705108013050505EFC0DFC99F
:10434000E30405FE13060500930501003705108000
:1043500013050505EFC0DFB48347010013073003E1
:104360006388E708636AF704130710036386E706A8
:10437000636AF70613070003E398E7FAB75500608E
:104380009385457B9385453E3705108013050505CC
:10439000EFC09FD16FF05FF9B75500609385457B03
:1043A0009385C5533705108013050505EFC0DFCF92
:1043B000130400006FF05FF7130750036388E704EE
:1043C00063EEE70213076003E390E7F6370500802A
:1043D000EFF08FC76FF05FF537050080EFF00FCF7C
:1043E0006FF09FF437050080EFF0CFDC6FF0DFF364
:1043F00037050080EFF04FCF6FF01FF337050060F7
:1044000093054500EFF0CFC36FF01FF2EFF01F9C54
:104410006FF09FF1375400601304447B9305C4642C
:10442000B704108013850405EFC01FC8370500804E
:10443000EFF08FCB9305846D13850405EFC0DFC6C5
:104440003705007093054500EFF08FBF6F00000047
:10445000130101FF23261100232481003707108058
:104460008347870593861700230CD704130710038F
:10447000636CF702B707108003A787061307A7002E
:1044800023A4E70603A787069307900063E6E700E7
:10449000B707108023A407068320C10003248100EE
:1044A0001301010167800000370410801305C40662
:1044B000EFC04FD0934525001305C406EFC08FB65B
:1044C000B7071080238C07046FF0DFFA130101FF98
:1044D00023261100370510801305C506EFC0CFC095
:1044E0001345F5FF1375050FB707108003A747069F
:1044F0001317170023A2E70603A7470693074000F8
:1045000063F8E70013071000B707108023A2E7063F
:10451000B707108083A54706B365B500370510803F
:104520001305C506EFC00FB0B707108003A78706B5
:104530001307A70023A4E70603A7870693079000A5
:1045400063E6E700B707108023A40706370510804D
:1045500013050506EFC0DFD48320C100130101015C
:1045600067800000130101FF23261100232481002E
:10457000370510801305C55DEFE04FA81304050053
:104580009307E001630CF5009307F001630AF5005F
:10459000630805001305A500EFC00F88EFF01FF3B7
:1045A00093050400370510801305C55DEFE04FA7A4
:1045B0008320C100032481001301010167800000F2
:1045C000130101FF9305000023248100232611001D
:1045D00013040500EF00003203A581808327C50383
:1045E00063840700E780070013050400EFC0CF8253
:1045F0009306300063F0C606B367B50093F7370043
:10460000638C07028347050003C705003306C50016
:10461000638AE7006F0080048347050003C7050035
:10462000639EE7021305150093851500E316A6FEA9
:1046300013050000678000000327050083A705001D
:10464000E312F7FC1306C6FF1305450093854500EA
:10465000E3E4C6FEE31806FA6FF09FFD3385E740FA
:1046600067800000B3C7A50093F73700B308C50003
:104670006398070E9307300063F4C70E93773500F5
:10468000130705006398070413F8C8FF930708FE93
:10469000636CF706637C07039386050093070700A6
:1046A00003A60600938747009386460023AEC7FE05
:1046B000E3E807FF9347F7FF338807011378C8FF44
:1046C0001308480033070701B3850501636E170916
:1046D0006780000083C60500130717009377370033
:1046E000A30FD7FE93851500E38007FA83C6050064
:1046F0001307170093773700A30FD7FE9385150094
:10470000E39A07FC6FF05FF883A3050083A24500DE
:1047100083AF850003AFC50083AE050103AE45013D
:1047200003A3850103A6C50193854502130747022C
:1047300083A6C5FF232E77FC232057FE2322F7FFF5
:104740002324E7FF2326D7FF2328C7FF232A67FE5A
:10475000232CC7FE232ED7FEE368F7FA6FF09FF3F2
:1047600013070500E37615F783C705001307170045
:1047700093851500A30FF7FEE36817FF678000001D
:104780001308F00013070500637EC8029377F70053
:104790006390070A63920508937606FF1376F60086
:1047A000B386E6002320B7002322B7002324B700F6
:1047B0002326B70013070701E366D7FE631406003C
:1047C00067800000B306C840939626009702000059
:1047D000B38656006780C6002307B700A306B7005C
:1047E0002306B700A305B7002305B700A304B7004D
:1047F0002304B700A303B7002303B700A302B70045
:104800002302B700A301B7002301B700A300B7003C
:104810002300B7006780000093F5F50F939685009D
:10482000B3E5D50093960501B3E5D5006FF0DFF64B
:104830009396270097020000B386560093820000EB
:10484000E78006FA93800200938707FF3307F7405B
:104850003306F600E378C8F66FF0DFF31377350020
:104860009307050093060500631C070437867F7FC6
:104870001306F6F79305F0FF9386460003A7C6FFDD
:10488000B377C700B387C7003367C700B3E7E70054
:10489000E384B7FE03C7C6FFB387A64003C6D6FFAF
:1048A00003C5E6FF63000704630A06023335A00070
:1048B0003305F5001305E5FF6780000063880602F5
:1048C00003C707009387170093F63700E31807FE26
:1048D000B387A7401385F7FF678000001385D7FFD4
:1048E000678000001385C7FF67800000938607007C
:1048F0006FF0DFF7130101FC232E710183AB818080
:1049000023206103370B00002328210323244103C4
:1049100023225103232C8101232A9101232E1102EA
:10492000232C8102232A9102232631032328A1016B
:104930002326B101930A050013890500138C8B14FB
:10494000130A1000930CF0FF130B0B0083A98B14B8
:1049500063800906930D0C0003A4490093142400FE
:104960001304F4FFB3849900634E04006300090844
:1049700083A74410630CF9061304F4FF9384C4FF67
:10498000E31694FF63060B0283A74900639A070CA2
:1049900083A70900638E07001385090023A0FD008B
:1049A00017B3FF9FE700036683A90D00E39609FA9A
:1049B0008320C103032481038324410303290103CA
:1049C0008329C102032A8102832A4102032B0102A7
:1049D000832BC101032C8101832C4101032D010193
:1049E000832DC100130101046780000083A74900E3
:1049F00003A744009387F7FF638A870423A2040078
:104A0000E30C07F683A78918B3168A0003AD4900A3
:104A1000B3F7F6006388070283A7C918B3F6F60058
:104A2000639A060283A5440813850A00E70007007D
:104A300083A74900E39CA7F183A70D00E38E37F31A
:104A40006FF0DFF0E70007006FF09FFE23A2890000
:104A50006FF01FFB03A54408E70007006FF05FFD40
:104A6000938D090083A90900E39809EE6FF05FF4C4
:104A70001000000000000000017A5200017C0101DA
:104A80001B0D02001000000018000000D4B6FFFF4C
:104A90000800000000000000100000002C000000D2
:104AA000C8B6FFFF08000000000000001000000072
:104AB00040000000BCB6FFFF1C000000000000002A
:104AC0001000000054000000C4B6FFFF10000000FA
:104AD000000000001000000068000000C0B6FFFFEA
:104AE0001000000000000000100000007C0000002A
:104AF000BCB6FFFF10000000000000001000000026
:104B000090000000B8B6FFFF300000000000000079
:104B100010000000A4000000D4B6FFFF2000000039
:104B20000000000010000000B8000000E0B6FFFF29
:104B30000C0000000000000010000000CC0000008D
:104B4000D8B6FFFF0C0000000000000010000000BD
:104B5000E0000000D0B6FFFF2800000000000000C9
:104B600010000000F4000000E4B6FFFF1800000091
:104B7000000000001000000008010000E8B6FFFF80
:104B80001000000000000000100000001C010000E8
:104B9000E4B6FFFF3C00000000000000140000002D
:104BA000300100000CB7FFFF1C00000000440E1095
:104BB00044810100140000004801000010B7FFFF0D
:104BC0001C00000000440E1044810100140000008D
:104BD0006001000014B7FFFF1C00000000440E102D
:104BE00044810100140000007801000018B7FFFFA5
:104BF0001C00000000440E1044810100140000005D
:104C0000900100001CB7FFFF1C00000000440E10C4
:104C10004481010010000000A801000020B7FFFF40
:104C2000080000000000000010000000BC010000AF
:104C300014B7FFFF2800000000000000180000006B
:104C4000D001000028B7FFFF4000000000440E1014
:104C5000488101880200000014000000EC010000FF
:104C60004CB7FFFF1C00000000440E1044810100FF
:104C7000140000000402000050B7FFFF1C000000F9
:104C800000440E1044810100140000001C020000CA
:104C900054B7FFFF2C00000000440E1044810100B7
:104CA000180000003402000068B7FFFF5400000045
:104CB00000440E104C81018802890300140000009A
:104CC00050020000A0B7FFFF1C00000000440E10BF
:104CD000448101001400000068020000A4B7FFFF37
:104CE0001C00000000440E1044810100140000006C
:104CF00080020000A8B7FFFF1C00000000440E1057
:104D0000448101001400000098020000ACB7FFFFCE
:104D10001C00000000440E10448101001C00000033
:104D2000B0020000B0B7FFFFA400000000440E2056
:104D30005481018802890392049305001C0000003D
:104D4000D002000034B8FFFFA000000000440E2095
:104D500050810188028903920400000018000000BD
:104D6000F0020000B4B8FFFF3400000000440E1051
:104D70004881018802000000180000000C030000B8
:104D8000CCB8FFFF6800000000440E104C81018881
:104D900002890300140000002803000018B9FFFF77
:104DA0004400000000440E20448101001C0000006B
:104DB0004003000044B9FFFFF800000000440E105B
:104DC0005081018802890392040000001400000051
:104DD000600300001CBAFFFF3400000000500E10FA
:104DE00044810100180000007803000038BAFFFF7A
:104DF000C400000000440E104C81018802890300A9
:104E00001800000094030000E0BAFFFFCC0000008F
:104E100000440E104C810188028903001800000034
:104E2000B003000090BBFFFFCC00000000440E1058
:104E30004C810188028903001C000000CC030000A3
:104E400040BCFFFF4C01000000440E10508101885F
:104E5000028903920400000018000000EC03000027
:104E60006CBDFFFFCC00000000440E104C81018897
:104E70000289030018000000080400001CBEFFFFA8
:104E80004C00000000540E10488101880200000010
:104E900018000000240400004CBEFFFF4800000082
:104EA00000540E1048810188020000001800000024
:104EB0004004000078BEFFFFBC00000000440E105C
:104EC0004C810188028903001C0000005C04000082
:104ED00018BFFFFFB8000000005C0E30548101884D
:104EE00002890392049305003C0000007C0400004A
:104EF000B0BFFFFF8400000000500E2054810188E5
:104F000002890392049305540E00C1C8C9D2D34448
:104F10000E2081018802890392049305024C0E0041
:104F2000C1C8C9D2D30000001C000000BC040000AE
:104F3000F4BFFFFFB400000000440E20548101883C
:104F4000028903920493050020000000DC040000A5
:104F500088C0FFFFD000000000440E205881018867
:104F60000289039204930594060000003C000000AF
:104F70000005000034C1FFFF80000000004C0E203F
:104F80005481018802890392049305500E00C1C820
:104F9000C9D2D3440E20810188028903920493056B
:104FA00002500E00C1C8C9D2D3000000100000009A
:104FB0004005000074C1FFFF240000000000000055
:104FC000200000005405000084C1FFFFD000000055
:104FD00000440E20588101880289039204930594AD
:104FE00006000000140000007805000030C2FFFF3A
:104FF0002C00000000440E10448101001400000049
:105000009005000044C2FFFF2C00000000440E1079
:105010004481010014000000A805000058C2FFFFF1
:105020002C00000000440E10448101001400000018
:10503000C00500006CC2FFFF2400000000440E10F9
:105040004481010014000000D805000078C2FFFF71
:105050002000000000440E104481010014000000F4
:10506000F005000080C2FFFF1C00000000440E108D
:1050700044810100180000000806000084C2FFFF00
:105080006800000000440E10488101880200000002
:105090001800000024060000D0C2FFFFCC00000072
:1050A00000440E1048810188020000001800000032
:1050B0004006000080C3FFFFC400000000440E1043
:1050C00048810188020000001C0000005C0600000E
:1050D00028C4FFFF0001000000440E105081018829
:1050E00002890392040000001C0000007C060000FE
:1050F00008C5FFFF7800000000480E1048810188B5
:105100000202780E00C1C8001C0000009C060000CE
:1051100060C5FFFF7800000000480E10488101883C
:105120000202780E00C1C80018000000BC06000092
:10513000B8C5FFFFA000000000540E104C8101888C
:105140000289030018000000D80600003CC6FFFFDB
:10515000A400000000540E104C8101880289030055
:1051600018000000F4060000C4C6FFFF9C00000009
:1051700000440E204C810188028903004800000091
:105180001007000044C7FFFF0804000000480E306D
:105190006481018802890392049305940695079619
:1051A000089709025C0E00C1C8C9D2D3D4D5D6D79E
:1051B000440E308101880289039204930594069578
:1051C0000796089709000000280000005C0700000F
:1051D00000CBFFFF3001000000480E104C81018819
:1051E000028903700E00C1C8C9440E1081018802F3
:1051F000890300002C0000008807000004CCFFFF9A
:105200003001000000480E1050810188028903928D
:1052100004780E00C1C8C9D2440E108101880289E9
:10522000039204003C000000B807000004CDFFFF1B
:10523000C401000000480E205C81018802890392AD
:105240000493059406950702500E00C1C8C9D2D335
:10525000D4D5440E208101880289039204930594D9
:105260000695070024000000F807000088CEFFFF25
:105270009C00000000500E105081018802890392AA
:105280000402880E00C1C8C9D20000001800000046
:1052900020080000FCCEFFFF3000000000500E1080
:1052A0004481015C0E00C100180000003C080000B1
:1052B00010CFFFFF2C00000000480E104481016059
:1052C0000E00C100180000005808000020CFFFFFAA
:1052D0002C00000000480E10448101600E00C10047
:1052E000280000007408000030CFFFFF7C0400009D
:1052F00000480E104C81018802890302D40E00C1BF
:10530000C8C9440E10810188028903001000000002
:10531000A008000080D3FFFF1C0000000000000078
:105320001C000000B408000088D3FFFF88000000C4
:1053300000440E105081018802890392040000008D
:1053400010000000D4080000F0D3FFFF2000000090
:105350000000000010000000E8080000FCD3FFFF80
:10536000440000000000000010000000FC080000E5
:105370002CD4FFFF440000000000000010000000DB
:10538000100900005CD4FFFF1C00000000000000BA
:10539000100000002409000064D4FFFF2400000076
:1053A00000000000100000003809000074D4FFFF66
:1053B0002400000000000000140000004C09000060
:1053C00084D4FFFF4800000000440E204481010007
:1053D0001400000064090000B4D4FFFF480000007E
:1053E00000440E20448101001C0000007C090000E4
:1053F000E4D4FFFFA800000000440E20548101887F
:105400000289039204930500180000009C09000023
:105410006CD5FFFF4800000000440E104881018851
:105420000200000018000000B809000098D5FFFF36
:105430004405000000440E204C81018802890300CD
:1054400018000000D4090000C0DAFFFF900000003F
:1054500000440E204C8101880289030020000000D6
:10546000F009000034DBFFFFC801000000440E30EB
:105470005881018802890392049305940600000074
:1054800010000000140A0000D8DCFFFF2400000018
:105490000000000010000000280A0000E8DCFFFF08
:1054A00048000000000000001C0000003C0A000052
:1054B0001CDDFFFFE800000000440E30548101882D
:1054C0000289039204930500100000005C0A0000AA
:1054D000E4DDFFFF78000000000000002000000075
:1054E000700A000048DEFFFF6401000000440E2047
:1054F0005C81018802890392049305940695070054
:1055000014000000940A000088DFFFFF2C00000058
:1055100000440E204481010018000000AC0A000085
:105520009CDFFFFF3800000000440E104881018816
:10553000020000002C000000C80A0000B8DFFFFFD6
:105540004C03000000440E607481018802890392BC
:105550000493059406950796089709980A990B9A5B
:105560000C9B0D0010000000F80A0000D4E2FFFFC1
:105570000800000000000000140000000C0B0000F8
:10558000C8E2FFFF8400000000440E2044810100B7
:1055900014000000240B000034E3FFFF1C00000097
:1055A00000440E10448101001C0000003C0B000070
:1055B00038E3FFFFCC00000000440E20508101883A
:1055C00002890392040000001C0000005C0B000034
:1055D000E4E3FFFF1804000000440EB0045481010E
:1055E00088028903920493051C0000007C0B0000D4
:1055F000DCE7FFFF2804000000440EA004508101F6
:1056000088028903920400001C0000009C0B00002B
:10561000E4EBFFFF5C02000000440E9002508101A9
:10562000880289039204000018000000BC0B0000EF
:1056300020EEFFFF7C00000000440E10488101882E
:105640000200000014000000D80B000080EEFFFFF5
:105650009800000000440E10448101001800000072
:10566000F00B000000EFFFFF5C00000000440E1094
:105670004881018802000000180000000C0C0000A6
:1056800040EFFFFF3000000000440E104C88028104
:105690000100000010000000280C000054EFFFFF84
:1056A0007400000000000000100000003C0C00002E
:1056B000B4EFFFFF1C01000000000000100000001C
:1056C000500C000098F1FFFF98000000000000005F
:1056D00030000000640C00001CF2FFFF7C010000A1
:1056E00000440E4048970948960870920494069525
:1056F00007980A990B81018802890393059A0C9BEC
:045700000D00000098
:105704000D000000307800000A50726F67616D2050
:1057140068617320657869746564207769746820AA
:10572400636F64653A000000747261700A000000DF
:1057340068656C6C6F0000002020526561642F570F
:105744007269746520737563636573730A0D000071
:105754002020526561642F577269746520666169FF
:105764006C0A0D002020466C6173682072656164C8
:1057740020737563636573730A0D00002020466C03
:1057840061736820777269746520737563636573E8
:10579400730A0D002020466C61736820746573746D
:1057A40020737563636573730A0D00004300000082
:1057B4000D0A0D0A3D3D3D3D3D3D3D3D3D3D3D3DDB
:1057C4003D3D3D3D3D3D3D3D3D3D3D3D3D3D3D3D05
:1057D4003D3D3D3D3D3D3D3D3D3D3D3D3D3D3D3DF5
:1057E4003D3D3D3D3D3D3D3D3D3D3D3D3D3D3D3DE5
:1057F4003D3D3D3D3D3D3D3D3D3D3D3D3D3D3D3DD5
:105804003D3D3D0D0A202020202020202020202066
:105814002020202020202020204D6963726F736592
:105824006D6920524953432D5620426F6F74204CAA
:105834006F616465722076302E302E380D0A3D3D3E
:105844003D3D3D3D3D3D3D3D3D3D3D3D3D3D3D3D84
:105854003D3D3D3D3D3D3D3D3D3D3D3D3D3D3D3D74
:105864003D3D3D3D3D3D3D3D3D3D3D3D3D3D3D3D64
:105874003D3D3D3D3D3D3D3D3D3D3D3D3D3D3D3D54
:105884003D3D3D3D3D3D3D3D3D3D3D3D3D0D0A20C4
:105894005468697320626F6F74206C6F6164657201
:1058A4002070726F76696465732074686520666F12
:1058B4006C6C6F77696E6720666561747572657369
:1058C4003A0D0A202020202D204C6F616420612095
:1058D40070726F6772616D20696E746F20444452F8
:1058E400206D656D6F7279207573696E67207468B9
:1058F4006520594D6F64656D2066696C652074720E
:10590400616E736665722070726F746F636F6C2E54
:105914000D0A202020202D205772697465206120F3
:1059240070726F6772616D20696E746F2074686540
:1059340020626F61726427732053504920666C6142
:1059440073682E2054686520657865637574616298
:105954006C65206D7573742066697273742062655A
:105964000D0A2020202020206C6F6164656420696A
:105974006E746F2074686520626F6172642773208F
:10598400444452206D656D6F7279207573696E673A
:105994002074686520594D6F64656D2066696C6577
:1059A400207472616E736665720D0A2020202020B7
:1059B4002070726F746F636F6C2E0D0A202020208C
:1059C4002D204C6F616420612070726F6772616D6D
:1059D4002066726F6D2053504920666C6173682095
:1059E400696E746F2065787465726E616C204444CE
:1059F40052206D656D6F727920616E64206C6175E3
:105A04006E6368207468650D0A20202020202070B1
:105A1400726F6772616D2E0D0A202020202D2041A7
:105A240075746F6D61746963616C6C79206C6F61FE
:105A34006420616E642065786563757465206120F7
:105A440070726F6772616D2066726F6D205350497A
:105A540020666C61736820646570656E64696E6746
:105A6400206F6E204449500D0A20202020202073EE
:105A74007769746368203020706F736974696F6E1E
:105A84002E0D0A000D0A2D2D2D2D2D2D2D2D2D2DF4
:105A94002D2D2D2D2D2D2D2D2D2D2D2D2D2D2D2D32
:105AA4002D2D2D2D2D2D2D2D2D2D2D2D2D2D2D2D22
:105AB4002D2D2D2D2D2D2D2D2D2D2D2D2D2D2D2D12
:105AC4002D2D2D2D2D2D2D2D2D2D2D2D2D2D2D2D02
:105AD4002D2D2D2D2D0D0A20426F6F74206C6F61BA
